:020000040000FA
:06000000A0EF13F0120056
:020006001200E6
:0600080016EF00F01200EB
:02000E00C250DE
:08001000020B01E0010E1200D9
:0600180019EF00F01200D8
:02001E000100DF
:0C002000B227000000020000DE0000001B
:04002C00BEEC08F02E
:100030001100D8CFE4FFE0CFE4FFE46EBEEC08F09F
:10004000E550E5CFE0FFE5CFD8FF1000A5EC08F0C4
:10005000020EE126ADEC04F0939093929394939664
:10006000939A949094929494969096928A968A8A6F
:100070008B808B828B848D828D848A848A908A92F5
:10008000200EE66EE66A08C214F009C215F0166A80
:1000900008C2E6FF09C2E6FF16C0E6FF190EE66ECB
:1000A000010EE66E64EC12F0176E070EE15E17505B
:1000B00092809282070EE66E040EE66EAF0EE66E3A
:1000C000A1EC12F0E552E552E552E66A030EE66E47
:1000D000E66AD8EC12F0E552E552E55249EC07F039
:1000E0009CEC09F0E5EC04F00201DF51F9E1400E6F
:1000F000E66E8C0EE66E010EE66E29EC0FF0E55210
:10010000E552E552DF6EDF50EBE0010EDB6ADF50B7
:10011000F36E010EDBCFF4FFF350F45C1AE2010E34
:10012000DB50EA6A8C0FE96E010EEA22EF50E66EB0
:10013000010EDB50EA6A000FE96E010EEA22E55279
:10014000E750EF6E0201022B000E0323010EDB2AA3
:10015000DED73FD9C5D7D9CFE6FFE1CFD9FFE652E9
:10016000FD0EDBCFF6FFFE0EDBCFF7FFF86AA68EA3
:10017000A69CA684A688F29E550EA76EAA0EA76E10
:10018000A6820000F28EA694DF6A200EDF5C30E2C9
:10019000FB0EDBCFE9FFFC0EDBCFEAFFEF50F56E85
:1001A000FB0EDBCFE9FFDB2AFC0EDBCFEAFF01E32E
:1001B000DB2A0D00DF28070B19E1080EF65E000EA2
:1001C000F75A000EF85AA68EA69CA684A698F29E10
:1001D000550EA76EAA0EA76EA6820000F28EA694F8
:1001E000080EF626000EF722000EF822DF2ACDD7E1
:1001F000E552E552E7CFD9FF120001012551DB6F2F
:10020000DC6B2651DD6FDE6B2751DF6FE06B285111
:100210006CEC08F026C10DF096EC07F07DEC08F0D0
:1002200002E2CD6BCE6B2951DB6FDC6B2A51DD6FA7
:10023000DE6B2B51DF6FE06B2C516CEC08F02AC1A8
:100240000DF096EC07F088EC08F003E2CF6B080E97
:10025000D06F2D51DB6FDC6B2E51DD6FDE6B2F51BC
:10026000DF6FE06B30516CEC08F02EC10DF096ECB6
:1002700007F093EC08F003E2D16B100ED26F45EC5F
:1002800007F0F3CFD3F1F4CFD4F10101000ED88001
:10029000F354100EF45403E2D36B100ED46FD35109
:1002A000CD5DD451CE5906E2CD51D35DD36FCE5141
:1002B000D459D46FD351CF5DD451D0590AE2D3C1B0
:1002C00014F0D4C115F02AEC09F0D9AF0AD0DA69DC
:1002D00008D0D3C114F0D4C115F032EC09F0D9BF65
:1002E000DA6942EF08F001011951DB6FDC6B1A513A
:1002F000DD6FDE6B1B51DF6FE06B1C516CEC08F0A7
:100300001AC10DF096EC07F07DEC08F002E2CD6B1F
:10031000CE6B1D51DB6FDC6B1E51DD6FDE6B1F5131
:10032000DF6FE06B20516CEC08F01EC10DF096EC15
:1003300007F088EC08F003E2CF6B080ED06F215174
:10034000DB6FDC6B2251DD6FDE6B2351DF6FE06B07
:1003500024516CEC08F022C10DF096EC07F093EC00
:1003600008F003E2D16B100ED26F47EC07F0F3CF29
:10037000D5F1F4CFD6F10101000ED880F354100E60
:10038000F45403E2D56B100ED66FD551CD5DD65126
:10039000CE5906E2CD51D55DD56FCE51D659D66F27
:1003A000D551CF5DD651D0590AE2D5C114F0D6C18E
:1003B00015F02AEC09F0D9AF0AD0DA6908D0D5C116
:1003C00014F0D6C115F032EC09F0D9BFDA6942EF6A
:1003D00008F002010207000E035B520E0101025DEC
:1003E00002E0000E01D0010E156E450E015D02E027
:1003F000000E01D0010E146E560E005D02E0000EDC
:1004000001D0010E1414151406E0190EE66E3E0E0E
:10041000E66E020E7FD24C0E055D02E0000E01D0AA
:10042000010E166E500E025D02E0000E01D0010EAC
:10043000156E4D0E015D02E0000E01D0010E146E2E
:10044000410E005D02E0000E01D0010E14141514DF
:1004500016145EE03D0E065D01E071D102010B0E47
:1004600002190BE1035109E1640E066F076B310EAF
:100470002D6F300E2E6F2F6F2ED00A0E021918E13D
:10048000035116E1300E0101085D146E300E075D58
:100490000A0DF35014240201066F076B800B01E074
:1004A0000769300E2D6F07C12EF208C12FF213D04D
:1004B000090E021910E103510EE1300E0101075D32
:1004C0000201066F076B800B01E00769300E2D6F8C
:1004D0002E6F07C12FF2640ED8800655000E075507
:1004E00003E2640E066F076B06C214F007C215F034
:1004F000280E1502F3CF15F01402F3CF14F0F450C8
:100500001526F3CFE6FF15C0E6FF52EC07F0C8D082
:100510004E0E0F5D02E0000E01D0010E156E490E69
:100520000E5D02E0000E01D0010E146E4D0E0D5D49
:1005300002E0000E01D0010E1414151429E0300E53
:10054000115D11E13AEC09F0196F72EC08F078ECEA
:1005500008F0FDE114C01AF165EC08F01B6F0FEC18
:1005600008F01C6F92D0310E115D01E08ED03DEC91
:1005700009F0256F72EC08F078EC08F0FDE114C08A
:1005800026F165EC08F0276F0FEC08F0286F7DD09E
:10059000580E0F5D02E0000E01D0010E156E410EE7
:1005A0000E5D02E0000E01D0010E146E4D0E0D5DC9
:1005B00002E0000E01D0010E1414151428E0300ED4
:1005C000115D11E13AEC09F0216F72EC08F078EC62
:1005D00008F0FDE114C022F165EC08F0236F0FEC88
:1005E00008F0246F52D0310E115D4FE13DEC09F05F
:1005F0002D6F72EC08F078EC08F0FDE114C02EF1DC
:1006000065EC08F02F6F0FEC08F0306F3ED04E0E07
:100610000F5D02E0000E01D0010E156E450E0E5D5D
:1006200002E0000E01D0010E146E430E0D5D02E0DB
:10063000000E01D0010E1414151435E0300E145DB7
:1006400011E13AEC09F01D6F72EC08F078EC08F05B
:10065000FDE114C01EF165EC08F01F6F0FEC08F00F
:10066000206F13D0310E145D10E13DEC09F0296FBD
:1006700072EC08F078EC08F0FDE114C02AF165ECAA
:1006800008F02B6F0FEC08F02C6F190EE66E010EC0
:10069000E66E08C2E6FF09C2E6FF5DDDE552E552FF
:1006A000E552E55296D0540E055D02E0000E01D0F1
:1006B000010E156E550E045D02E0000E01D0010E14
:1006C000146E4D0E035D02E0000E01D0010E1414F5
:1006D00015141BE03D0E075D10E1310E085D04E1CD
:1006E0000201310E186F8A94300E0101085D71E12C
:1006F0000201300E186F8A846CD018C222F20C0EE0
:10070000E66E190EE66E020E05D14C0E025D02E099
:10071000000E01D0010E156E4F0E015D02E0000EBD
:1007200001D0010E146E560E005D02E0000E01D0E5
:10073000010E1414151409E060DD05EC09F00D0E2E
:10074000E66E250EE66E020EE5D0450E025D02E075
:10075000000E01D0010E156E500E015D02E0000E7C
:1007600001D0010E146E530E005D02E0000E01D0A8
:10077000010E1414151404E0B6DD0EEC09F0CAD015
:10078000570E025D02E0000E01D0010E156E4F0EF5
:10079000015D02E0000E01D0010E146E500E005DEE
:1007A00002E0000E01D0010E141415141EE03D0EDF
:1007B000085D13E1310E095D04E10201310E0A6F9B
:1007C0008A8A300E0101095D04E10201300E0A6FD0
:1007D0008A9A730EE66E270EA5D00AC215F20D0E88
:1007E000E66E0B0EE66E020E95D0420E025D02E042
:1007F000000E01D0010E156E450E015D02E0000EE7
:1008000001D0010E146E440E005D02E0000E01D016
:10081000010E1414151401E182D0EFDCADDB14C01D
:100820007AF26ADB14C079F267DB14C078F24BEC21
:1008300009F00201C56FEAEC08F00201C46FEAECAE
:1008400008F00201C36FEAEC08F00201C26F52EC3B
:1008500009F00201CA6FF1EC08F00201C96FF1EC76
:1008600008F00201C86FF1EC08F00201C76F59EC03
:1008700009F00201CF6FF8EC08F00201CE6FF8EC3E
:1008800008F00201CD6FF8EC08F00201CC6F2BDD0F
:1008900073DB14C086F230DB14C085F22DDB14C08C
:1008A00084F24BEC09F00201AD6FEAEC08F00201B2
:1008B000AC6FEAEC08F00201AB6FEAEC08F0020161
:1008C000AA6F52EC09F00201B26FF1EC08F00201DC
:1008D000B16FF1EC08F00201B06FF1EC08F0020129
:1008E000AF6F59EC09F00201B76FF8EC08F00201A4
:1008F000B66FF8EC08F00201B56FF8EC08F00201F1
:10090000B46F18C292F20AC29FF27A0EE66E570EC8
:10091000E66E020EE66E68EC0FF0E55206D05C0E55
:10092000E66E270EE66E94EC0FF0E552E5520201FA
:10093000026B036B180E021901E103510BE0000E6C
:100940000225E96E010E0321EA6EEF6A022B000E0A
:100950000323F0D7026B036B12000F0EC11265EC7C
:1009600009F0B3EF04F0958095829584958695887B
:10097000958A958C958E8350010B0101396F8350B8
:10098000020B01E0010E3A6F8350040B01E0010EEF
:100990003B6F8350080B01E0010E3C6F8350100B3E
:1009A00001E0010E3D6F8350200B01E0010E3E6F10
:1009B0008350400B01E0010E3F6F8350800B01E03C
:1009C000010E406F496B4A6B1200200E0001605D02
:1009D00001E299D06D50020B01E0120095D8B5EC00
:1009E0000FF00201D22B000ED323C80ED880D255AF
:1009F000000ED35501E387D0D26BD36BFDEC00F032
:100A00000201D4510101D35D186ED4510201D555B4
:100A1000196E01011850E35D1950E45902E3000E0C
:100A200001D0010E176ED3510201D45D0101D451E2
:100A30000201D55902E3000E01D0010E1714166E03
:100A40000101D3510201D425146E0101D4510201D8
:100A5000D521156E0101E351145CE451155802E3F0
:100A6000000E01D0010E161007E0CFDB0D0EE66E72
:100A7000250EE66E020E89DBD3C1E6FFD4C1E6FF88
:100A800011DAE552E552D3C1E3F1D4C1E4F12BDC34
:100A90000201D4510101D55D186ED6510201D55520
:100AA000196E01011850E55D1950E65902E3000E78
:100AB00001D0010E176ED5510201D45D0101D6514E
:100AC0000201D55902E3000E01D0010E1714166E73
:100AD0000101D5510201D425146E0101D651020144
:100AE000D521156E0101E551145CE651155802E35C
:100AF000000E01D0010E161002E090DB46DBD5C1DE
:100B0000E5F1D6C1E6F11200010149514A1102E1B5
:100B1000000E08D049C1E9FF4AC1EAFFEF50800B3F
:100B200001E0010E00093CE13CD8000904E012DBC1
:100B3000D6C235F430D040D8000904E00BDBD7C270
:100B400035F429D048D8000904E004DBD8C235F4D4
:100B500022D050D8000904E0FDDAD9C235F41BD008
:100B600058D8000904E0F6DADAC235F414D060D8B7
:100B7000000904E0EFDADBC235F40DD068D80009D3
:100B800004E0E8DADCC235F406D070D8000905E0EC
:100B9000E1DADDC235F44CEF08F0DCDA356B7CDAF3
:100BA00012008350010B0101395D05E08350010BF8
:100BB000396F83A0010C000C8350020B01E0010E81
:100BC00001013A5D07E08350020B01E0010E3A6F2C
:100BD00083A2010C000C8350040B01E0010E010103
:100BE0003B5D07E08350040B01E0010E3B6F83A4E3
:100BF000010C000C8350080B01E0010E01013C5D6B
:100C000007E08350080B01E0010E3C6F83A6010C46
:100C1000000C8350100B01E0010E01013D5D07E067
:100C20008350100B01E0010E3D6F83A8010C000CF6
:100C30008350200B01E0010E01013E5D07E083506F
:100C4000200B01E0010E3E6F83AA010C000C8350C3
:100C5000400B01E0010E01013F5D07E08350400BB6
:100C600001E0010E3F6F83AC010C000C8350800B40
:100C700001E0010E0101405D07E08350800B01E0BF
:100C8000010E406F83AE010C000C12001200120026
:100C90001200A7EC11F0B8EF0EF012001A0EE66E7B
:100CA000010EE66E3CEC0DF0E552E55206EF0FF05A
:100CB0006D840101080EE96F070EEA6FE907000E67
:100CC000EA5BE951EA11FAE16D9412003EDA100E86
:100CD000E66EBCEC13F060DA01E2DB06DBCF15F068
:100CE00014501510F4E146D230DA100EE66E90EC96
:100CF00013F052DA01E2DB06DBCF15F014501510C9
:100D0000F4E138D222DA0C0EE126DE6ADD6A020E48
:100D1000DB6A040EF36E030EF3CFDBFF040EDB6A17
:100D2000050EDB6A060EDB6A070EDB6A080EDB6A5D
:100D3000090EDB6A0A0EDB6A0B0EDB6A050E0EDAA1
:100D400007EC00F00009FCE10CDA040EDB6A050E8A
:100D5000DB6A040EDBCF14F0050EDBCF15F0040EBA
:100D6000145C000E155856E20A0EF8D907EC00F094
:100D70000009FCE1F6D9E2D9DECF16F0DDCF17F09D
:100D80001450165C1550175805E2060EDBCFDEFF37
:100D9000DBCFDDFFD3D9020EDBCF16F0030EDBCFA6
:100DA00017F01650145C175015580CE2060EDBCFE6
:100DB00008F0070EDBCF09F0020E08C0DBFF030EC0
:100DC00009C0DBFFBBD9166A176A15AE02D01668D8
:100DD0001768D950080FE96EDACFEAFFEE501426F3
:100DE000EE501522EE501622EE501722080E14C0B7
:100DF000DBFF090E15C0DBFF0A0E16C0DBFF0B0E72
:100E000017C0DBFF050EFBD9040EDB2A050EA1E39C
:100E1000DB2A9FD7DECF1CF0DDCF1DF01E6A1F6AD4
:100E2000D950080FE96EDACFEAFF1C50EE5C186E5D
:100E30001D50EE58196E1E50EE581A6E1F50EE5887
:100E40001B6E020EDBCF20F0030EDBCF21F0226AF7
:100E5000236A2050185C146E21501958156E2250C8
:100E60001A58166E23501B58176ED8901732163228
:100E70001532143214C0F3FF15C0F4FF0C0EE15C00
:100E800002E2E16AE552E16E75D18F0EE2D0870E83
:100E9000E0D08A98010EB3D9300ED5D9700ED3D9CF
:100EA0008A88120052D9100E086E096AFD0EDBCF37
:100EB0000DF0FE0EDBCF0EF0B3EC10F0FD0E06C011
:100EC000DBFFFE0E07C0DBFF8A98010E98D9300EBB
:100ED000E66E84D8FD0EDBCF14F0FE0EDBCF15F0EE
:100EE00015C014F0156A1450E66E78D8FD0EDBCFED
:100EF000E6FF74D88A883ED1E3D906C014F007C053
:100F000015F008C016F009C017F00A0E0B6E0C6A37
:100F10000D6A0E6A8CD108C014F009C015F00A0ED3
:100F20000D6E0E6A7AEC13F0DFEF08F0DEC10EF002
:100F3000B3EC10F00101DB510624166EDC510720E2
:100F4000176E086A010E096EDFC10DF0E0C10EF0E8
:100F5000B3EC10F016500624146E17500720156ECF
:100F6000086A100E096EE1C10DF0E2C10EF0B3EC9B
:100F700010F0145006241200D7C114F0D8C115F097
:100F8000D9C116F0DAC117F00A0E0B6E0C6A78D9C7
:100F90004ED11B6E1C6A500E176EC30E186E196A66
:100FA00017C007F0086E19C009F01AC00CF01BC07A
:100FB0000DF01CC00EF086EC10F014C00CF015C043
:100FC0000DF016C00EF0D1EC10F004C0D7F105C042
:100FD000D8F106C0D9F10101DA6B12004BEC13F025
:100FE000E552010EFFEF08F00A0E0D6E0E6ACDC13C
:100FF00008F0CEC109F07AEF13F00A0E0D6E0E6AFA
:10100000CFC108F0D0C109F07AEF13F00A0E0D6ECF
:101010000E6AD1C108F0D2C109F07AEF13F0000EC8
:10102000E715F00EE815E838156A0F0B146E12007C
:1010300014C039F245D90C0EE66E320EE66E020E81
:101040001200F3CFE7F1F4CFE8F10F0E0101F31432
:101050001200E66E63EC13F0E552050EE66EBCEC92
:1010600013F0E5524FDEF3CF14F0F4CF15F0D89023
:1010700014361536D8901436153614C0F3FF15C043
:10108000F4FF1200E80E0B6E030E0C6ED3EF08F0A7
:1010900014C02DF260EF09F0366B376B386B396B8B
:1010A0003A6B080EE66E330EE66E040EE66E010E27
:1010B000E66EE66E88EC0DF0146E050EE15E1450DF
:1010C000F3CF49F1F4CF4AF11200000E0101E71508
:1010D0000F0EE815156A1200E16FE26B100E086E34
:1010E000096A1200F00EF314146E156A040E120051
:1010F000D89015321432E80412000101CD6F15505A
:101100000720CE6F000ED880CD55100ECE551200A0
:101110000101CF6F15500720D06F000ED880CF553A
:10112000100ED05512000101D16F15500720D26F5B
:10113000000ED880D155100ED2551200060EDBCF0E
:1011400014F0070EDBCF15F01200D9CFE6FFE1CF88
:10115000D9FF12000401336B346B120050D8D7EF63
:1011600013F0C7EC13F0060EF3CFDBFF070EF4CF3E
:10117000DBFF1200E552E7CFD9FF1200DACFE4FF20
:10118000E652E552E5CFDAFF1200E66E68EC0FF0AA
:10119000E552E552E5521200E552FD0EDB06DBCFCB
:1011A00014F0FE0E12006CD80AEC13F006C0D7F152
:1011B00007C0D8F108C0D9F109C0DAF1120004C0A3
:1011C00014F005C015F00F0E1416000E1516300E93
:1011D0001410120009DF08C0CDF109C0CEF18BEF69
:1011E00007F00BDF08C0CFF109C0D0F18BEF07F09B
:1011F0000DDF08C0D1F109C0D2F18BEF07F0E66E28
:10120000E66A64DDE552E5521200B6DE14C02FF244
:1012100073DE14C02EF270DE48EF08F0ADDE14C0AD
:101220003BF26ADE14C03AF267DE18EF08F00AEC0F
:1012300013F002C014F00F0E1416156A166A176A1E
:10124000300E14121200E66EC9DEE66AC7DEE66AE8
:10125000EEEF07F0166ACF51D15D1A6ED251D0551C
:10126000C9EF07F0166ACD51CF5D1A6ED051CE5539
:10127000C9EF07F00CDE21EF08F007DE21EF08F0E0
:101280000D6A0E6AD7C106F0D8C107F0D9C108F0BF
:10129000DAC109F01200CDC114F0CEC115F0A4DE00
:1012A000DFEF08F0CFC114F0D0C115F0A6DEDFEFFC
:1012B00008F0D1C114F0D2C115F0A8DEDFEF08F0BC
:0A12C0000A0E0B6E0C6AD3EF08F063
:0612CA0032EC0EF06A6A2E
:1012D000686A9F0E6B6EFB0E696E6D8C6D9C6E6AFC
:1012E00016EC0EF0DF6A37EC0EF010E2DF50040D62
:1012F000F3CFE9FFF4CFEAFF000EE926040EEA225D
:10130000EE6AEE6AEE6AEE6ADF2AEDD7160E706EAE
:1013100068A604D0030EDCEC0DF0FAD700017B6B5D
:10132000806B816B826B6D98040E6F6F040E706F13
:10133000616B606B35EF0EF032EC0EF00001605126
:101340000BE16D6A696A6DB602D06D86FCD700014B
:10135000010E606F140E6F6E600508E16DBA06D065
:10136000686A696A69806988020E606F6850040B58
:1013700004E06950040B01E065D86DB249D06850B3
:10138000010B11E06950010B0EE09FDF0001040E1C
:10139000606F0401200E026F040E036F080E016FD0
:1013A000006B8C0E00136850100B04E06950100B9A
:1013B00001E042D86850400B08E06950400B05E05E
:1013C00047EC06F0060EDCEC0DF06850200B04E054
:1013D0006950200B01E01ED86850020B06E06950EE
:1013E000020B03E048EC06F06A6A040E0001605D3F
:1013F0000FE369A60DD0DF6A040EDF5C09E268A680
:1014000007D06CCF88F0030ED7DB26D8DF2AF4D7BD
:1014100035EF0EF070A00DD003EC0EF0EF50800809
:1014200007E1D4DBEF50840803E1EDDB8C0EEF6EB7
:101430007090050EDCEF0DF06984040EBDDB6D824B
:1014400045EF06F06D9246EC06F0699468A403D06F
:10145000020EB2DBFBD71200FD0E0001881518E169
:101460007E0E8815E8407F0B040DF3CF63F0F4CFB8
:1014700064F0000E6327040E642363C065F064C04B
:1014800066F08DEC0EF002E14EEF0AF05FEF0AF02D
:10149000FD0E8815040801E11AD8120097DBEF5001
:1014A000800B02E093DBEF6A0001776B786B7C6B5B
:1014B0007D6B7B6B8DD849EC06F007EF0CF0020ECC
:1014C0000001785D02E191EF0CF092EF0AF0CADBC7
:1014D0007DDBEF50400B01E0010EDF6E080E0001D6
:1014E000605D09E122C46EFF6E50000802E2100E3A
:1014F00001D0040E606F780513E17FEC0EF0BFD9C8
:10150000020E0001775D03E161DB840E07D0DF503E
:1015100003E15CDBC80E02D059DB880EEF6E01D010
:1015200001D8A3D3E7DB030EE126020E0001785DAC
:1015300025E16D50100B22E066DBEE52EF50146E89
:10154000156A080E14181AE1155018E1E6DB16E1C9
:10155000C0DBEF50800B12E1BCDBC0DBDF6A87DB56
:1015600022E2DF508CDBDF50EA6A200FE96E040EC6
:10157000EA22E552E750EF6EDF2AF1D7786BB4DB51
:10158000EF6A000E6F19146E70C015F0010E14C0D2
:10159000DBFF020E70C0DBFF010EDBCFE9FF020EA6
:1015A000DBCFEAFFEF6A000180AF0CD083518411DA
:1015B00007E005D084C0FAFF00018351F96EFADF1D
:1015C0000001809F030EE15C02E2E16AE55207D36D
:1015D00004012051600BE842E842E842E842E84258
:1015E000000901E0120021510C0A43E00B0A3FE020
:1015F0000C0A31E0010A22E00B0A1EE0020A1CE09C
:10160000030A18E0080A10E0010A0CE00F0A08E0DB
:10161000030A01E0120000017B8F080E606F1200C8
:1016200097EF0BF0EAEF0CF00001610E796F000EFE
:101630007A6F0CD0D2EF0BF03AEF0BF0245100018F
:10164000796F7A6B620E7927000E7A237B81010E07
:101650007C6F7B8F120000017B8F04012451EA6AAA
:10166000620FE96E000EEA2222C4EFFF12004DEF76
:1016700006F012003FDB050EE1260401220510E111
:1016800020511F0B00090CE100017B8F030E0401A8
:10169000215D04E10001010E876F02D00001876B1C
:1016A000040122513EE120511F0B02083AE124516E
:1016B0000F0B000936E000017B8F040EDB6A020E7F
:1016C000F36E040EDBCFF4FFF350F45C2AE2DFDAB2
:1016D00001E0010E9DDA030E215D03E182DA840E42
:1016E0001CD024510F0B156A700F146E0F0E1522AB
:1016F000020E14C0DBFF030E15C0DBFF020EDBCFB2
:10170000E9FF030EDBCFEAFFEE90ED5224AF03D0EA
:1017100068DA400E02D065DAC80EEF6E040EDB2ADE
:10172000CED7050EE15C02E2E16AE55258D2800EA6
:101730000401205D36E10001C00E7B6F04012351DE
:10174000030A1EE0010A09E0030A29E10001340E40
:10175000796F220E7A6F120E1FD0B0DA450EF62680
:10176000230E9DDA020E0001F76A7925F66E7A5192
:10177000F7220900F5CF7CF00A00F5CF7DF01200CA
:101780009DDA470EF626230E8ADA79C0F6FF7AC074
:10179000F7FF0800F55000017C6F7D6B120000011F
:1017A0007B6B120018DA0401286B296B20511F0B88
:1017B000020A11E0030A0CE0010A19E100017B8F23
:1017C000040128810001870512E1040128830FD05C
:1017D00000017B8F0CD000017B8F59DA01E0010EF4
:1017E00017DAFFD9EF50040B02E0010E286F000159
:1017F0007BAF07D0280E796F040E7A6F7B81020EC3
:101800007C6F020EE15C02E2E16AE552E8D16D987C
:1018100000017BBF07D080AF02D09ADA28D064DA0B
:10182000840E26D080BF2AD0040120AF23D000012F
:101830007C510401265D00017D510401275904E219
:1018400026C47CF027C47DF01AD80001010E786F01
:10185000ACD9D3D9800EEF6ED6D9EE52080EEF6E0A
:10186000D2D93CDAD0D9800EEF6E49DAAFD9C80EA2
:10187000EF6E120000016CDAC80EEF6E1200ABD9E9
:101880000001080E7C5D000E7D590DE27CC0DEFF7C
:101890007DC0DDFF775102E1010E03D0770506E13F
:1018A000020E776F03D0080EDE6EDD6A8FD9EF92DD
:1018B0008DD9EF908BD9010EDB50EF1287D9EE5204
:1018C000DFCFEFFF000EDB507C5F010EDB507D5B56
:1018D000280E856F040E866F7BB10FD0F6D91BE002
:1018E00079C0F6FF7AC0F7FF792B000E7A23080043
:1018F000F550A5D9F3E2DB06F1D7E7D90CE079C0C2
:10190000E9FF7AC0EAFF792B000E7A23EF5097D9CE
:10191000F4E2DB06F2D7020EE15C02E2E16AE55294
:101920005ED159D970D9EE52EFCFDFFFDFCF14F07F
:1019300014500001815D000E825903E281C0DFFF77
:1019400009D0DF50146E156AE850815D816F155023
:101950008259826F010EDB6ADF50F36E010EDBCF1E
:10196000F4FFF350F45C10E2010EDB5088D97EC026
:10197000E9FF7FC0EAFF7E2B000E7F23E552E75090
:10198000EF6E010EDB2AE8D7000ED8808155000EDD
:1019900082550CE2D1D937D9EF50400B03E199D9E8
:1019A000C80E02D096D9880EEF6E0ED092D996D975
:1019B0008351841107E005D084C0FAFF00018351F0
:1019C000F96EFADF0001809F020EE15C02E2E16A3B
:1019D000E55205D100017B8F29D9010EE66EE66A3A
:1019E000E66A620EE66E000E9FD922C461F0040121
:1019F000225104E10001100E606F12000001200E60
:101A0000606F4EEF06F0E7D8000EDE6E040EDD6E5E
:101A1000FD0EDB50040DF3CF16F0FE0EDB50080D6B
:101A2000F3501624146E156A020E0F0B05E0D890C1
:101A300015321432E806FBE1D89014361536D890EA
:101A4000143615367CD91450EE261550ED22C9D81F
:101A5000EF9EFD0EDB5002E156D901D059D9EA22A2
:101A6000DECFEEFFDDCFEDFFBCD8EF8C020EE15CE8
:101A700002E2E16AE552B3D0AED8FE0EDB50156A41
:101A8000700F146E0F0E152214C0DEFF15C0DDFF9F
:101A9000FD0EDB50E66EA5D8E552E750EE6EED6A1E
:101AA000FD0EDBA402D0E66A02D9FD0EDBA203D054
:101AB000010EE66EFCD8020EE15C02E2E16AE5523C
:101AC0008ED089D8FE0EDB5004E10ED9840EEF6E65
:101AD00019D0FD0EDBCFE6FFFE0EDB50E824E55209
:101AE000E724040DF3CF14F0F4CF15F0000E142604
:101AF000040E152214C0DEFF15C0DDFF840E71D860
:101B0000E850EF12020EE15C02E2E16AE55267D0B2
:101B100062D8FD0EDB5002E0FBD801D0F4D8EA22F7
:101B2000EECFDEFFEDCFDDFF5CD8EF7C5AD81BD9BE
:101B3000FB0EDBCFEEFFFC0EDBCFEDFF52D8EE52FB
:101B4000FA0EDBCFEFFF400E4CD8E850EF16880EB0
:101B500048D8E850EF12FD0EDB5002E0D9D801D092
:101B6000D2D8EA22DECF14F0DDCF15F014C0F3FF97
:101B700015C0F4FF020EE15C02E2E16AE5522FD0EB
:101B8000B9D8010EF36EFC0EDB5004E0D890F336AA
:101B9000E806FCE1F31C146EFD0EDBCFE9FFFE0E40
:101BA000DBCFEAFF1450EF16CFD093D8EE52080ED9
:101BB000EF6E8FD8B3EF0EF0E66E680EE66E0F0E86
:101BC000E66EDEDFE552E552E55212006FC0E9FF36
:101BD00070C0EAFF12008ED8020EE1261200E16EFC
:101BE000B3D0DECFE9FFDDCFEAFF1200FE0EEA6AD6
:101BF000DB34FE0BEA36E96E1200200EEE6E040EA8
:101C0000ED6E69EF0EF063C0E9FF64C0EAFF1200F9
:101C1000166E24510F0BE8241624040DF4CF15F092
:101C20008ED8F350EE261550ED221200020EE66E0D
:101C3000E66AE66A710EE66E0F0E94EF0EF0E66E3F
:101C400085C0E9FF86C0EAFF852B000E8623E5529A
:101C5000E750EF6EDF06010E1200280EEE6E040E46
:101C6000ED6E120047D8E6521200E5526DD0DF50FB
:101C7000146E156A080E145C000E15581200EA6AFC
:101C8000280FE96E040EEA22EF50E66E1200000EF5
:101C9000DE6E040EDD6E04012451800B1200F7226B
:101CA0000900F5CF79F00A00F5CF7AF01200FE0EA8
:101CB000DBCFE6FFA8DEE552E55212002251F66EB8
:101CC000F76AD890F636F736120039D8EE50ED1094
:101CD000120065C0E9FF66C0EAFF120044D8200E7A
:101CE000EE6E040EED6E120060DF87DF8C0EEF6E7D
:101CF000E6EF0DF0D9CFE6FFE1CFD9FF120066DFA6
:101D000032D82DEF0EF072DF670EE926000E1200BA
:101D10006DDF6F0EE926000E120075DFEF503C0BF1
:101D2000E842E8420D081200E66E87EC12F0146EED
:101D3000050EE15E1450120038DF2DEF0EF0D9CF02
:101D4000E9FFDACFEAFF1200E552E7CFD9FF120030
:101D5000020E786F3BDFEE52EF6A38DFC80EEF6E8F
:101D6000EBDF69EF0EF0020EE926000EEA22120008
:101D7000040120511F0B010801E012002051600BEB
:101D8000E842E842E842E842E842010801E0120085
:101D9000245103E0245101E012002151220A31E0D4
:101DA000030A24E0010A15E0210A0DE0010A01E01E
:101DB00012000001EF0E796F020E7A6F080E7C6F31
:101DC0007D6B7B8121D00001EF0E796F020E7A6F5F
:101DD0001BD026C481F027C482F00001C30E7E6FA1
:101DE000040E7F6F836B846B808F12000001C30E23
:101DF000796F040E7A6F070E7C6F7D6BC10E7B6F5F
:101E0000120022C4EAF200017B8F12000401800E4E
:101E1000C36F250EC46FC56BC66BC76BC86B080E4E
:101E2000C96F0201DF6BDE6B1A0EE66E020EE66E04
:101E30003CEC0DF0E552E5521E0EE66E030EE66E2A
:101E40003CEC0DF0E552E55246D90201E86BE96B36
:101E500012002CD90201DE6BE651E71102E1000EFF
:101E600005D034D9EF50800B01E0010E00092DE1BF
:101E7000FC0EDBCF14F02AD9EE52EF50D880145468
:101E800005E224D9EE52FC0EEFCFDBFFDE6BFC0E39
:101E9000DB50DE5D19E2DE51EA6A430FE96E040EA3
:101EA000EA22EF50E66EDE51E76EFD0EDBCFE9FF72
:101EB000FE0EDBCFEAFFE750E926000EEA22E552EC
:101EC000E750EF6EDE2BE3D706D90201DE51F3D0E7
:101ED000EDD80201DF5107E1E2D8FC0EDBCFE4F2DE
:101EE000010EE56FDF6FE7D00BD917E1BDD8E7D85A
:101EF00002E115500BE0010EDBCFE9FFDB2A020EF9
:101F0000DBCFEAFF01E3DB2AEF50F1E1C8D8DFCFF6
:101F1000E4F20201010EE56FDF6F030EE15C02E205
:101F2000E16AE552E16EC7D0EBD818E19DD8C7D879
:101F300002E115500CE0010EDBCFF6FFDB2A020EAA
:101F4000DBCFF7FF01E3DB2A0800F550F0E1A7D86B
:101F5000DFCFE4F20201E56B010EDF6F030EE15CFF
:101F600002E2E16AE552E16EA6D0A0D8020EE126B7
:101F70000201E851E91102E1000E08D0E8C2E9FFD0
:101F8000E9C2EAFFEF50800B01E0010E00095CE1BD
:101F9000030EDF5D01E1DF6BDF5156E0020EDF5D16
:101FA00008E1E66A000EE66EE66AA2D80201030EB8
:101FB00043D0DF0542E1400E146E156AE451145C13
:101FC000000E155803E2400EDF6E02D0E4C2DFFFC0
:101FD000DF50E45DE46F830EE26F040EE36F010EE9
:101FE000DFCFDBFFE5510BE1010EDB5012E0E0C279
:101FF000F6FFE1C2F7FF0800F55044D8F5D7010E0F
:10200000DB5007E0E0C2E9FFE1C2EAFFEF503AD857
:10201000F6D70201E45111E1E8C2E9FFE9C2EAFFA3
:10202000EE52EF50146E156A400E141804E115506C
:1020300002E1020E01D0030EDF6FDFCFE6FF830E59
:10204000E66E040EE66E54D8020EE15C02E2E16A2E
:10205000E552E16E30D0030EE66E88EC0DF0146EA2
:10206000050EE15E14501200DF6AFD0EDBCF08F0B2
:10207000FE0EDBCF09F0DE5208C0DEFF09C0DDFF37
:10208000DD521200E2C2E9FFE3C2EAFFEF6EE22B8B
:10209000000EE323E02BE123010EDB061200FD0E10
:1020A000DBCFE0F2FE0EDBCFE1F21200D9CFE6FF8C
:1020B000E1CFD9FF1200E552E7CFD9FF1200DF2AA6
:1020C000DF50146E156AFF0E14181200E6C2E9FF05
:1020D000E7C2EAFF1200400EE66E430EE66E040E03
:1020E000E66EE66AB8DFF3CFE6F2F4CFE7F212006D
:1020F000010EE66EB0DFF3CFE8F2F4CFE9F21200A2
:0C210000D5DF030EE1260201DF511200C2
:04210C00006A0EAEA9
:1021100091EF10F00C6C0D1E0E1EE86A0D220E22BF
:10212000001E09AE9BEF10F0076C081E091EE86A3E
:1021300008220922001E2EEC13F009BEAEEF10F0AB
:1021400000AE000C076C081E091EE86A082209226E
:10215000036C041E051E04220522000C00BEA2EF23
:1021600010F00188FF0C08C012F008500D02F4CFE7
:1021700007F0F3CF06F009500E02F4CF09F0F3CFC9
:1021800008F00D02F3500726F4500822E86A0922ED
:1021900012500E02F3500726F4500822E86A092272
:1021A000000C09C013F008C012F007C011F007506E
:1021B0000C02F4CF05F0F3CF04F008500D02F4CF79
:1021C00007F0F3CF06F00C02F3500526F450062278
:1021D000E86A072211500D02F3500526F45006223A
:1021E000E86A072209500C02F3500626F450072231
:1021F00009500D02086AE86A0822F3500726F450D5
:10220000082211500E02F3500626F4500722096AE4
:10221000E86A0822092212500E02F3500726F450F1
:102220000822E86A092213500E02F3500826F450DF
:042230000922000C73
:0C22340012010002EF020108D80455005E
:1022400001000102000109025300020100C032092D
:10225000040000030202000005240010010424020F
:10226000020524060000052401000007058203087A
:10227000000207050302400000070583024000003A
:1022800009040100020301010009211101000122DA
:102290003F0007058103080001070501030800014D
:1022A00004030904340350007200610074007300D9
:1022B00061006D0044006F0063006B004B00420042
:1022C000000000000000000000000000000000000E
:1022D00000000000000000002E03500072006100AA
:1022E0007400730061006D0044006F0063006B00B8
:1022F00000000000000000000000000000000000DE
:1023000000000000000005010906A101050719E011
:1023100029E71500250175019508810295017508C9
:10232000810395057501050819012905910295019B
:1023300075039103950675081500256505071900B5
:0D23400029658100C04622A022A422D822D7
:02234E00040188
:1023500020511F0B010801E01200240501E01200CA
:10236000060E215D21E12351230A1BE0010A0CE046
:10237000030A1AE10001610517E100019A0E796F65
:10238000220E7A6F090E09D0000161050DE10001EE
:10239000060E796F230E7A6F3F0E7C6F7D6BC00E39
:1023A00002D00001800E7B6F04012051600BE842D7
:1023B000E842E842E842E842010801E01200215107
:1023C0000B0A2AE0080A1DE0090A15E0080A09E0DC
:1023D0000B0A05E0080A01E0120012EF12F013EFF9
:1023E00012F00001F70E796F020E7A6F010E7C6F0A
:1023F0007D6BC10E0FD00001800E7B6F23C4F7F2FE
:1024000012000001F80E796F020E7A6F010E7C6FD8
:102410007D6B810E7B6F12000001800E7B6F22C4EA
:0A242000F8F2120012001200120080
:06242A001E0EF66E000E0E
:10243000F76E000EF86E01010900F550F06F09000B
:10244000F550F16F03E1F06701D03DD00900F55080
:10245000EB6F0900F550EC6F0900F550ED6F0900C6
:102460000900F550E96E0900F550EA6E090009000F
:102470000900F550EE6F0900F550EF6F09000900F3
:10248000F6CFF2F1F7CFF3F1F8CFF4F1EBC1F6FFAD
:10249000ECC1F7FFEDC1F8FF0101EE5302E1EF538C
:1024A00007E00900F550EE6EEE07F8E2EF07F9D706
:1024B000F2C1F6FFF3C1F7FFF4C1F8FF0101F00725
:0824C000000EF15BBFD7120012
:0824C800FB0EE3CFF6FFFC0E52
:1024D000E3CFF7FFFD0EE3CFF8FFFE0EE3CFE9FFFA
:1024E000FF0EE3CFEAFFE9CFF3FFEACFF4FFF90EE7
:1024F000E35003E1FA0EE35009E0F90EE30602E2CD
:10250000FA0EE3060900F5CFEEFFF1D71200FE0E3A
:10251000E3CFE9FFFF0EE3CFEAFFE9CFF3FFEACF16
:10252000F4FFFB0EE35003E1FC0EE35009E0FB0E69
:10253000E30602E2FC0EE306FD0EE350EE6EF1D779
:02254000120087
:0E254200D9CFE6FFDACFE6FFE1CFD9FFE2CF37
:10255000DAFFC26AC06AFC0EDB407F0B3C0BC26E26
:10256000FB0EDBCFE6FFFC0EDB38F00B300BE55249
:10257000E710C16EFD0EDB50040DF350380B156EE5
:10258000FD0EDB380F0B070B146EFD0EDB50800BBE
:1025900014101510C06EFC0EDBAE03D09E9C9D8CFB
:1025A000F28CC280E552E5CFDAFFE7CFD9FF120007
:1025B000D9CFE6FFDACFE6FFE1CFD9FFE2CFDAFFEE
:1025C0003F0EC716C66AFD0EDB50C612FB0EDB506F
:1025D000C712FC0EDB50030A09E0010A04E0020AFC
:1025E00006E1C78C04D0C78CC68801D0C688FD0E12
:1025F000DB50050A03E0010A03E1928A938201D0CD
:1026000093929380949EC68AE552E5CFDAFFE7CF96
:04261000D9FF1200DC
:0C261400056A046A036A026A200EE76E81
:10262000D8900636073608360936023603360436A1
:1026300005360B50025C0C5003580D5004580E50D8
:10264000055809E30B50025E0C50035A0D50045A12
:0C2650000E50055A062AE72EE4D71200AF
:04265C00056A046A9D
:10266000036A180EE76ED890073608360936033627
:10267000043605360C50035C0D5004580E500558B6
:1026800007E30C50035E0D50045A0E50055A072AFA
:06269000E72EEAD712005C
:0A269600D9CFE6FFDACFE6FFE1CF6F
:1026A000D9FFE2CFDAFFFD0EDB50C96EC6AE02D015
:1026B000FF0E03D0C7A0FED7000EE552E5CFDAFF2C
:0626C000E7CFD9FF120074
:0A26C600D9CFE6FFDACFE6FFE1CF3F
:1026D000D9FFE2CFDAFFC30EC214146EFD0EDB4049
:1026E0007F0B3C0B1410C26EE552E5CFDAFFE7CF4B
:0426F000D9FF1200FC
:0C26F400056A046A100EE76ED8900836E4
:102700000936043605360D50045C0E50055805E3B5
:102710000D50045E0E50055A082AE72EF0D712001D
:10272000FF0EE350246E480E01D04C0EE76EE72EEC
:10273000FED7E76AE72EFED7242EF7D70000120057
:1027400013EE00F023EE00F0F86A019C15EC12F095
:0C27500003EC00F026EC00F0FBD71200B8
:04275C00756E7265BF
:10276000636F676E697A656420636F6D6D616E6417
:082770000D0A004F4B0D0A0099
:08277800FF0EE350E84E1200D1
:0E278000000000D000D000D0E82EFAD71200E2
:02278E00C45035
:10279000176E166AC3501610F36E17C0F4FF1200BE
:0E27A00000EE00F00F0EEE6AEA62FDD71200A6
:0227AE00C282E5
:0227B000120015
:0E27B2000000000000000000003531504F57BD
:1027C00045524C45443A20310D0A30414D504D554B
:1027D00054453A20300D0A564F4C554D453A20305D
:1027E00030300D0A53504545443A203030300D0A00
:1027F00056455253494F4E3A2032303131303732FC
:10280000333138343130300D0A56455253494F4E2A
:102810003A203230313130373233313834313030A0
:102820000D0A564F4C554D453A203030300D0A5365
:10283000504545443A203030300D0A414D504D55F9
:1028400054453A20300D0A504F5745524C45443AB2
:1028500020310D0A4449414C20303A20303030308C
:102860002C303030302C303030300D0A4449414C5F
:1028700020313A20303030302C303030302C303075
:1028800030300D0A0000020026132D1F19162012E9
:020000040030CA
:0100000024DB
:010001000EF0
:010002003FBE
:010003001EDE
:010005008179
:010006008178
:010008000FE8
:01000900C036
:01000A000FE6
:01000B00E014
:01000C000FE4
:01000D0040B2
:00000001FF
